:1000000000308A00BD2B00000A108A100A118207F6
:1000100028340F34013406340A108A100A1182077A
:100020000C342034543469346E343A342534323448
:10003000753420342034203448343A342534323472
:1000400075340A34203454347334653474343A3497
:100050002034253432347534203400340A108A10A8
:100060000A1182070C342034543469346E343A3423
:1000700025343234753420342034203448343A3432
:100080002534323475340A342034203454347334F3
:10009000653474343A3420342534323475342034A1
:1000A00000342C3084008313000803195E28F830D4
:1000B000F700F70B59285C28800B572800343318B9
:1000C0006328061264280616831606128312B318D4
:1000D0006B2886126C2886168316861283123319B3
:1000E0007328061374280617831606138312B31990
:1000F0007B2886137C2886178316861306108312A6
:100100000614831606108312061000348316861018
:1001100083128610B008031D8F288610902886143D
:10012000831686101830F700F70B942897280610CE
:1001300083120610310EB2000F30B2053208B30040
:100140005F2031080F39B200B3005F2000348316FE
:1001500006128312061283168612831286128316E3
:1001600006138312061383168613831286138316CF
:1001700086108312861083160610831206100F3025
:10018000AC0051200130A6002608033C031CD028F7
:100190000330B3005F200530AC005120A60AC4280C
:1001A0000230B3005F20A6012608033C031CE128AF
:1001B00026080420A700B0012708B1008620A60A5F
:1001C000D4288A110A12CA2B2D0BE728EA284030BE
:1001D000AE00EB28AE0101302C02AE072E088038AD
:1001E000AF00B0012F08B100862000342630840013
:1001F0008313000803190329F830F700F70BFE28D2
:100200000129800BFC2800348E30F7002708F80005
:100210002608F900FA01F808031D18297908F800E2
:10022000F9010830F702F808031D1829F701202901
:100230000310F81B1F29F90DF80DF7031829F813FF
:10024000003426080319E629B2002A080319E62912
:10025000B202031C30297F30B2070318E629362981
:100260008130B202031CE6290319E6293208F7009F
:10027000F801F901FA01B1012708B000B017280808
:10028000AF002908AE001930B2002D08AE020318E5
:1002900059290130AF0203185929B002031859290E
:1002A000B10203185929B10AB00AAF0A2D08AE07E6
:1002B0008B292C08AF02031874290130B0020318EF
:1002C0007429B10203187429B10AB00A2C08AF07C7
:1002D0002D08AE07031C8B29AF0A031D8B29B00A1A
:1002E000031D8B29B10A8B292B088038B002031813
:1002F0008A290130B10203188A29B10A2B088038F3
:10030000B0072C08AF07031C6829B00A031D682931
:10031000B10A68297A14B20B8E2999290310AE0DFF
:10032000AF0DB00DB10D0310FA0DF90DF80DB30DB1
:100330004529331CA1290310F80CF90CFA0CB30C55
:10034000A429F7030319E629B31BCD290310AE0D29
:10035000AF0DB00DB10D2D08AE020318B929013053
:10036000AF020318B929B0020318B929B102031C5E
:10037000DC292C08AF020318C4290130B00203188D
:10038000C429B102031CDC292B088038B0020318F1
:10039000CD290130B102031CDC29FA0A031DDC2936
:1003A000F90A031DDC29F80A031DDC29F70A0319E1
:1003B000E629F80CF90CFA0C2708B2002B08B20653
:1003C000B21FE429F817EA29F813EA29F701F8011E
:1003D000F901FA0100348E30F7002A08F7022B08E1
:1003E000F9002C08F800F917F7080319022A03107E
:1003F000F908031DFE29F8080319022AF90CF80C64
:10040000F70BF729AB1F092AF809F909F80A0319AC
:10041000F90A003480308318AF06B401B5012B0807
:10042000B3002F08B3062A080319FA2AB200F7000E
:100430002E080319032BB20203199F2A031C5D2AFD
:100440002F08B800B8173008B7003108B600B5015A
:100450000310B80CB70CB60CB50CB20B272AB31F9F
:10046000342A3414172B3410321034162D308400F3
:1004700083132C2B3412B31B472A321C522AB80C7C
:10048000B70CB60CB50CF70A0319122B522AB81B7D
:10049000552A0310B50DB60DB70DB80DF7030319A6
:1004A000122B472A3417BF2A34132B08B300B31F6B
:1004B0005B2AB8170B2BB8130B2B2E08B200F700D2
:1004C0002A08B2022B08B800B8172C08B7002D086C
:1004D000B600B5010310B80CB70CB60CB50CB20BD6
:1004E000692AB31F762AB414172BB4103210B4162D
:1004F0003130840083132C2BB412B31B892A321C95
:10050000942AB80CB70CB60CB50CF70A0319122BC9
:10051000942AB81B972A0310B50DB60DB70DB80D68
:10052000F7030319122B892AB417BF2AB4132F0813
:10053000B300B31F9D2AB8170B2BB8130B2B2F0832
:10054000B800B8173008B7003108B600B31FAC2A9E
:10055000B8133415172B3411B50132102D30840027
:1005600083132C2BB31BD52A2B08B300321CBF2AB4
:10057000B80CB70CB60CB50CF70A0319122BB51F43
:10058000D02AB60A031DD02AB70A031DD02AB80AFA
:10059000031DD02AB80CB70CB60CF70A0319122B9E
:1005A000341B542AB41B962AF42A8030B806B81F8C
:1005B000DD2A172B2F08B300EA2A2B08B300B8084E
:1005C000031DEA2AB708031DEA2AB608031DEA2A12
:1005D000F7010B2BB81BF42A0310B50DB60DB70DA0
:1005E000B80DF70BEA2A122BB31FF82AB8170B2BFA
:1005F000B8130B2B2E08F7002F08B8003008B700EF
:100600003108B6000B2B2A08F7002B08B8002C087D
:10061000B7002D08B6003808F8003708F90036088A
:10062000FA004A2BF701F801F901FA014A2BB5014A
:10063000B609B709B809B509B50A031D252BB60ACD
:10064000031D252BB70A0319B80A3418332AB41826
:10065000752A3419AB2ADA2A0008B607031C362B90
:10066000B70A031D362BB80A031932148403000895
:10067000B707031C3E2BB80A031932148403000881
:10068000801F803AB80703183214341A3A2AB41A71
:100690007C2AB22A00342C08F8012B020318532BB1
:1006A0002B08F7005F2BF7010830AD00AB0DF70DFD
:1006B0002C0877020318F700F80DAD0B562B003409
:1006C0002B080C3A03196E2B063A0319762B073ABE
:1006D0000319762B053A03197C2B812BB0010130CD
:1006E000B10086200230AC005120872B0130AC00D5
:1006F0000230AD00E420872BB0011030B10086201D
:10070000872B0130B0002B08B1008620872B0034E6
:1007100078082908AB006430AC004B237708A900A7
:1007200078083030031D9B2BAA1CA22BAA19A22BE0
:100730002A1A20309E2BAA112A122A14F8077808A8
:10074000AB0060232908AB000A30AC004B237708CC
:10075000A90078083030031DB32BAA19B72B2A1C27
:10076000B72B2A1A2030F8077808AB006023303006
:10077000A9072908AB0060230034840183131F30CC
:10078000830583161F149F141F159F1107309C00AB
:100790008312A7280230AC000130AD00E4201430F1
:1007A000A600F6200030831688001F109F101F152A
:1007B0009F111F1383121F179F1783169F178312F2
:1007C0001F14F8001F08C73978049F001430A600D2
:1007D000F6200030F8001F08C73978049F00143055
:1007E000A600F6201F151F19F32B83161E0883126F
:1007F000A300A7012308A60004217A08A90079080C
:10080000A8007808A7007708A6003330AD00AC0038
:100810004B30AB008130AA0021217A08AD00790865
:10082000AC007808AB007708AA00EB217808A0009C
:100830001430A600F6200830F8001F08C7397804E5
:100840009F001430A600F6201F151F19252C8316B3
:100850001E088312A400A7012408A60004217A0818
:10086000A9007908A8007808A7007708A600A43096
:10087000AD007030AC003930AB008330AA002121CC
:100880007708A6007808A7007908A8007A08A900C8
:1008900083107A08AD007908AC007808AB007708BF
:1008A000AA00B101B0011030AF008430AE000A22BE
:1008B0007A08AD007908AC007808AB007708AA0088
:1008C000EB217808A1001430A600F6201830F800BB
:1008D0001F08C73978049F001430A600F6201F15A2
:1008E0001F19702C83161E088312A5002508AB0063
:1008F0003330AC004B237808A2001430A600F62059
:10090000210820020318432D8316880180308312AA
:1009100088001430A600F6200030F8001F08C73900
:1009200078049F001430A600F6201F151F19962C7E
:1009300083161E088312A300A7012308A600042122
:100940007A08A9007908A8007808A7007708A60007
:100950003330AD00AC004B30AB008130AA00212118
:100960007A08AD007908AC007808AB007708AA00D7
:10097000EB217808A0001430A600F6200830F8001B
:100980001F08C73978049F001430A600F6201F15F1
:100990001F19C82C83161E088312A400A70124085F
:1009A000A60004217A08A9007908A8007808A70001
:1009B0007708A600A430AD007030AC003930AB0031
:1009C0008330AA0021217708A6007808A7007908BB
:1009D000A8007A08A90083107A08AD007908AC0055
:1009E0007808AB007708AA00B101B0011030AF0061
:1009F0008430AE000A227A08AD007908AC0078088D
:100A0000AB007708AA00EB217808A1001430A600FB
:100A1000F620A60126080C20A60AF700AB006023EA
:100A200006302602031D0A2D2008A9001130AA0055
:100A300088230930A70027080C20A70AF700AB007D
:100A400060230E302702031D1B2D2208A900113040
:100A5000AA0088231130A80028080C20A80AF70053
:100A6000AB00602319302802031D2C2D2108A9009A
:100A70001130AA0088232030AB0060231430A60078
:100A8000F620612E602E83168801831288011430AF
:100A9000A600F6200030F8001F08C73978049F0030
:100AA0001430A600F6201F151F19542D83161E089A
:100AB0008312A300A7012308A60004217A08A90035
:100AC0007908A8007808A7007708A6003330AD00A1
:100AD000AC004B30AB008130AA0021217A08AD0078
:100AE0007908AC007808AB007708AA00EB217808F9
:100AF000A0001430A600F6200830F8001F08C739FF
:100B000078049F001430A600F6201F151F19862DAB
:100B100083161E088312A400A7012408A60004213E
:100B20007A08A9007908A8007808A7007708A60025
:100B3000A430AD007030AC003930AB008330AA0077
:100B400021217708A6007808A7007908A8007A086C
:100B5000A90083107A08AD007908AC007808AB00D2
:100B60007708AA00B101B0011030AF008430AE00A8
:100B70000A227A08AD007908AC007808AB00770843
:100B8000AA00EB217808A1001430A600F620183046
:100B9000F8001F08C73978049F001430A600F6201B
:100BA0001F151F19D12D83161E088312A5002508B5
:100BB000AB003330AC004B237808A2001430A60001
:100BC000F620A60126080C20A60AF700AB00602339
:100BD00006302602031DE22D2008A9001130AA00CC
:100BE00088230930A70027080C20A70AF700AB00CC
:100BF00060230E302702031DF32D2208A9001130B7
:100C0000AA0088231130A80028080C20A80AF700A1
:100C1000AB00602319302802031D042E2108A9000F
:100C20001130AA0088232030AB0060231430A600C6
:100C3000F620612E2208210220020318602E83165E
:100C400088018030831288001430A600F620A601A7
:100C500026082E20A60AF700AB00602306302602E5
:100C6000031D282E2008A9001130AA00882309306E
:100C7000A70027082E20A70AF700AB0060230E303C
:100C80002702031D392E2208A9001130AA0088234B
:100C90001130A80028082E20A80AF700AB00602316
:100CA0001A302802031D4A2E2108A9001130AA007B
:100CB00088232030AB0060231430A600F620612E7C
:040CC000E92B6300B9
:02400E003B3F36
:00000001FF
;PIC16F877A
