:1000000000308A00652900000A108A100A11820750
:1000100028340F34013406340A108A100A1182077A
:100020000C345F345F345F3420340A342034483475
:100030004F34523441343A34253432346C347534CC
:100040003A342534303432346C3475340034303042
:1000500084008313000803193428F830F700F70BE5
:100060002F283228800B2D28003437183928061203
:100070003A280616831606128312B71841288612EC
:1000800042288616831686128312371949280613CA
:100090004A280617831606138312B71951288613A8
:1000A00052288617831686130610831206148316A9
:1000B00006108312061000348316861083128610F1
:1000C000B408031D652886106628861483168610DA
:1000D0001830F700F70B6A286D28061083120610F7
:1000E000350EB6000F30B6053608B7003520350896
:1000F0000F39B600B700352000348316061283127C
:100100000612831686128312861283160613831232
:1001100006138316861383128613831686108312A2
:10012000861083160610831206100F30B0002720A9
:100130000130A5002508033C031CA6280330B700A6
:1001400035200530B0002720A50A9A280230B700D4
:100150003520A5012508033C031CB72825080420E9
:10016000A600B4012608B5005C20A50AAA288A11B9
:100170000A127929310BBD28C0284030B200C128AD
:10018000B20101303002B20732088038B300B40146
:100190003308B5005C200034263084008313000847
:1001A0000319D928F830F700F70BD428D728800B8B
:1001B000D22800342F080C3A0319E828063A03190C
:1001C000F028073A0319F028053A0319F628FB2806
:1001D000B4010130B5005C200230B00027200129B5
:1001E0000130B0000230B100BA200129B401103052
:1001F000B5005C2001290130B4002F08B5005C2057
:1002000001290034AE010408AD002E10831B2E140A
:10021000270EF038A900A907E23EAA00323EAC0042
:1002200027080F39AA07AA07AC07E93EAB00AB07BE
:10023000AB07260E0F39AB07AC07AB0DAC0DAC0905
:10024000AC0D26080F39AC07A90D0730A8000A30FD
:10025000AC07AB03031C2829AB07AA03031C2C29FA
:10026000AA07A903031C3029A907A803031C3429E2
:1002700028308400831307302D052D1384072C307C
:10028000040203192D170008F700031D4F292D1B29
:100290004F292D1A6129AD194F2920305229AD154A
:1002A0002D123030F707A7010408A6002710831B82
:1002B00027147708AF00DA20260884008313271854
:1002C0008317840A2D1F3F290034840183131F30B4
:1002D000830583161F149F141F159F1107309C0060
:1002E0008312A001A1011130A200A301FF30A400DC
:1002F0007D280130B0000230B100BA206430A60081
:10030000CC200030831687008312A4000A308316A5
:10031000880000308312A4008316870183128701AE
:100320001430A600CC20A00A0319A10A0930A500A8
:100330006F30A600CC20A50B9829A108031DA42985
:1003400020083B3C0318AC29A101A001A20A031913
:10035000A30A1430A600CC202208173C031DB6299E
:10036000A308031DB629A3011130A200A501250889
:100370000C20A50AF700AF00DA200C302502031D7F
:10038000B729033084002308A7002208A600022111
:100390003A30AF00DA200B3084002108A700200893
:1003A000A60002216430A600CC20A308031DDC298E
:1003B0002208113C03181D2AA308031D1D2A220828
:1003C000143C031C1D2A0030A4008316870108304A
:1003D000831287000430F700F70BEC29EF2983160E
:1003E0008815831288191D2A0030A40083168701FE
:1003F0000930831287006430A600CC20A5012508AF
:100400000C20A50AF700AF00DA200C302502031DEE
:10041000FF29033084002308A7002208A600022138
:100420003A30AF00DA200B3084002108A700200802
:10043000A60002216430A600CC20A308031D242AB4
:100440002208113C03182B2AA308031D2B2A22087B
:10045000143C0318692A0030A40083168701831214
:1004600087010430F700F70B332A362A83168815E4
:1004700083128819692A831688148312881C692AB2
:100480000030A400831687010930831287003230C0
:10049000A600CC20A50125080C20A50AF700AF0076
:1004A000DA200C302502031D4B2A03308400230878
:1004B000A7002208A60002213A30AF00DA200B3054
:1004C00084002108A7002008A60002216430A600AD
:0604D000CC20932963001B
:02400E003B3F36
:00000001FF
;PIC16F877A
