:1000000000308A00ED2800000A108A100A118207C9
:1000100028340F34013406340A108A100A1182077A
:100020002034483465346C346C346F3420345734A5
:100030006F3472346C34643421342134203400340D
:10004000233084008313000803192D28F830F700AB
:10005000F70B28282B28800B262800342A18322852
:10006000061233280616831606128312AA183A2897
:1000700086123B2886168316861283122A19422876
:10008000061343280617831606138312AA194A2853
:1000900086134B28861783168613061083120614C0
:1000A00083160610831206100034831686108312FE
:1000B0008610A708031D5E2886105F288614831605
:1000C00086101830F700F70B632866280610831295
:1000D0000610280EA9000F30A9052908AA002E2015
:1000E00028080F39A900AA002E2000348316061212
:1000F0008312061283168612831286128316061343
:1001000083120613831686138312861383168610B2
:100110008312861083160610831206100F30A30078
:1001200020200130A1002108033C031C9F2803303C
:10013000AA002E200530A3002020A10A9328023017
:10014000AA002E20A1012108033C031CB02821088D
:100150000420A200A7012208A8005520A10AA32874
:100160008A110A12FA28240BB628B9284030A500B3
:10017000BA28A50101302302A50725088038A6006A
:10018000A7012608A8005520003422080C3A0319BC
:10019000D328063A0319DB28073A0319DB28053A66
:1001A0000319E128E628A7010130A80055200230F4
:1001B000A3002020EC280130A3000230A400B320CB
:1001C000EC28A7011030A8005520EC280130A7002A
:1001D0002208A8005520EC280034840183131F3026
:1001E000830583161F149F141F159F1107309C0051
:1001F000831276280C30A200C5200130A300023003
:10020000A400B320A10121080C20A10AF700A2003C
:10021000C5200F302102031D03290230A100FA304E
:0C022000A3002020A10B0F29F928630087
:02400E00333F3E
:00000001FF
;PIC16F877A
