:1000000008308A00002800000A108A100A118207AE
:1000100028340F34013406340A108A100A1182077A
:100020000C34203420342034203455343A342534F0
:1000300032342E34313466347634203449343A3410
:10004000253432342E3431346634413420340A3489
:10005000203450346F34743465346E34633469340E
:1000600061343A34253432342E34303466347734C3
:1000700020340034453084008313000803194728D6
:10008000F830F700F70B42284528800B4028003451
:100090004C184C2806124D28061683160612831299
:1000A000CC18542886125528861683168612831279
:1000B0004C195C2806135D28061783160613831255
:1000C000CC196428861365288617831686130610B4
:1000D000831206148316061083120610003483164A
:1000E000861083128610C908031D78288610792887
:1000F0008614831686101830F700F70B7D288028A9
:100100000610831206104A0ECB000F30CB054B08A9
:10011000CC0048204A080F39CB00CC0048200034DE
:100120008316061283120612831686128312861213
:1001300083160613831206138316861383128613FF
:1001400083168610831286108316061083120610FB
:100150000F30C5003A200130B4003408033C031CC2
:10016000B9280330CC0048200530C5003A20B40A35
:10017000AD280230CC004820B4013408033C031CF5
:10018000CA2834080420B500C9013508CA006F2008
:10019000B40ABD288A150A120E28460BD028D32887
:1001A0004030C700D428C70101304502C7074708BF
:1001B0008038C800C9014808CA006F2000343530B3
:1001C0008400831300080319EC28F830F700F70BBC
:1001D000E728EA28800BE52800348E30F700350840
:1001E000F8003408F900FA01F808031D012979081C
:1001F000F800F9010830F702F808031D0129F7019A
:1002000009290310F81B0829F90DF80DF703012936
:10021000F8130034440803197A29CC00480803195C
:100220007A29CC0703181B297F30CC02031C7A29BA
:1002300003197A291F298130CC0703187A294C0821
:10024000F700F801F901FA014508D000D017460877
:10025000CF004708CE001830CC00CD014E1C4829F5
:100260004B08FA07031C3A29F90A031D3A29F80A30
:100270000319CD174A08F907031C4129F80A031985
:10028000CD174908C600C6174608F8070318CD174A
:10029000CD0DF80CF90CFA0CD00CCF0CCE0C0310D1
:1002A000CC0B2D290130F70703187A29F81B5F2999
:1002B000D00DFA0DF90DF80DF70303197A29D01FA7
:1002C0007029FA0A031D7029F90A031D7029F80A1A
:1002D000031D7029F80CF90CFA0CF70A03197A2996
:1002E0004508CD004908CD06CD1F7829F8177E298D
:1002F000F8137E29F701F801F901FA0100343808F2
:100300000319442AC4003C080319442AC402031CEC
:100310008E297F30C4070318442A94298130C402EF
:10032000031C442A0319442A4408F700F801F90180
:10033000FA01C3013908C200C2173A08C1003B08DC
:10034000C0001930C4003F08C0020318B7290130AB
:10035000C1020318B729C2020318B729C302031840
:10036000B729C30AC20AC10A3F08C007E9293E08E3
:10037000C1020318D2290130C2020318D229C302D4
:100380000318D229C30AC20A3E08C1073F08C007A2
:10039000031CE929C10A031DE929C20A031DE92931
:1003A000C30AE9293D088038C2020318E829013050
:1003B000C3020318E829C30A3D088038C2073E0873
:1003C000C107031CC629C20A031DC629C30AC629C0
:1003D0007A14C40BEC29F7290310C00DC10DC20D0E
:1003E000C30D0310FA0DF90DF80DC50DA329451C19
:1003F000FF290310F80CF90CFA0CC50C022AF703BC
:100400000319442AC51B2B2A0310C00DC10DC20DB0
:10041000C30D3F08C0020318172A0130C102031898
:10042000172AC2020318172AC302031C3A2A3E08DD
:10043000C1020318222A0130C2020318222AC30271
:10044000031C3A2A3D088038C20203182B2A0130C7
:10045000C302031C3A2AFA0A031D3A2AF90A031DA9
:100460003A2AF80A031D3A2AF70A0319442AF80C13
:10047000F90CFA0C3908C4003D08C406C41F422A0E
:10048000F817482AF813482AF701F801F901FA0188
:1004900000343508BC003908BC06BC1F542A0311BF
:1004A0000310B51B0314872A3508BC003808BD00AB
:1004B0003408BD020319622ABC1F872A0308013AC7
:1004C0008300872A3908BD003508BD0203196E2A4A
:1004D000BC1F872A0308013A8300872A3A08BD0017
:1004E0003608BD0203197A2ABC1F872A0308013A7D
:1004F0008300872A3B08BD003708BD020319862AFE
:10050000BC1F872A0308013A8300872A03108A1533
:100510000A129A2880308318B906BE01BF01350837
:10052000BD003908BD06340803197A2BBC00F7005A
:1005300038080319832BBC0203191F2B031CDD2A67
:100540003908C200C2173A08C1003B08C000BF0109
:100550000310C20CC10CC00CBF0CBC0BA72ABD1FE2
:10056000B42A3E14972B3E103C103E1637308400C0
:100570008313AC2B3E12BD1BC72A3C1CD22AC20CD3
:10058000C10CC00CBF0CF70A0319922BD22AC21B54
:10059000D52A0310BF0DC00DC10DC20DF7030319FD
:1005A000922BC72A3E173F2B3E133508BD00BD1FB7
:1005B000DB2AC2178B2BC2138B2B3808BC00F70029
:1005C0003408BC023508C200C2173608C10037081B
:1005D000C000BF010310C20CC10CC00CBF0CBC0B8F
:1005E000E92ABD1FF62ABE14972BBE103C10BE167A
:1005F0003B3084008313AC2BBE12BD1B092B3C1C6B
:10060000142BC20CC10CC00CBF0CF70A0319922B9F
:10061000142BC21B172B0310BF0DC00DC10DC20D33
:10062000F7030319922B092BBE173F2BBE13390872
:10063000BD00BD1F1D2BC2178B2BC2138B2B39087E
:10064000C200C2173A08C1003B08C000BD1F2C2BD6
:10065000C2133E15972B3E11BF013C10373084006A
:100660008313AC2BBD1B552B3508BD003C1C3F2B09
:10067000C20CC10CC00CBF0CF70A0319922BBF1F90
:10068000502BC00A031D502BC10A031D502BC20A58
:10069000031D502BC20CC10CC00CF70A0319922B7E
:1006A0003E1BD42ABE1B162B742B8030C206C21FE1
:1006B0005D2B972B3908BD006A2B3508BD00C20899
:1006C000031D6A2BC108031D6A2BC008031D6A2B7A
:1006D000F7018B2BC21B742B0310BF0DC00DC10D76
:1006E000C20DF70B6A2B922BBD1F782BC2178B2BD9
:1006F000C2138B2B3808F7003908C2003A08C10032
:100700003B08C0008B2B3408F7003508C2003608C0
:10071000C1003708C0004208F8004108F90040084D
:10072000FA00CA2BF701F801F901FA01CA2BBF013F
:10073000C009C109C209BF09BF0A031DA52BC00A10
:10074000031DA52BC10A0319C20A3E18B32ABE18FD
:10075000F52A3E192B2B5A2B0008C007031CB62B79
:10076000C10A031DB62BC20A03193C1484030008F6
:10077000C107031CBE2BC20A03193C1484030008E2
:10078000801F803AC20703183C143E1ABA2ABE1AC8
:10079000FC2A322B003444080C3A0319D92B063AB0
:1007A0000319E12B073A0319E12B053A0319E72B4B
:1007B000EC2BC9010130CA006F200230C5003A207D
:1007C000F22B0130C5000230C600CD20F22BC9014A
:1007D0001030CA006F20F22B0130C9004408CA0053
:1007E0006F20F22B0034F701F801F901FA01CC0176
:1007F000CD01CE01CF014B084A0449044804031936
:10080000312C2030D0000310C40DC50DC60DC70D0E
:10081000CC0DCD0DCE0DCF0D4B084F02031D1A2C64
:100820004A084E02031D1A2C49084D02031D1A2CBA
:1008300048084C02031C2B2C4808CC024908031C16
:10084000490FCD024A08031C4A0FCE024B08031C75
:100850004B0FCF020314F70DF80DF90DFA0DD00B65
:10086000032C4C308400831300340408BC003B0884
:10087000BE000319542C3A08C7003908C6003808CE
:10088000C5003708C400CB01CA012030C90082303E
:10089000C8000A217A08BA007908B9007808B800B7
:1008A0007708B700BE0B3B2C3A08C7003908C600D2
:1008B0003808C5003708C4004408B63CC400FA0133
:1008C0004508C800C5170310C50CC60CC70CFA0CA8
:1008D000F90CF80CF70CC40B632CC81F7A2CF70921
:1008E000F809F909FA09F70A0319F80A0319F90AC4
:1008F0000319FA0A7A08BA007908B9007808B8002A
:100900007708B700BA1F912CBC03BC16B709B80909
:10091000B909BA09B70A0319B80A0319B90A0319B8
:10092000BA0A3B30C3009A30C200CA30C100C001CD
:100930000A30BE003B080319BC0A3A08C700390850
:10094000C6003808C5003708C4004308CB00420879
:10095000CA004108C9004008C800F3230008B700D6
:10096000840A0008B800840A0008B900840A000854
:10097000BA00FD308407F708031DD12C3B0A3E0264
:100980000319D12C3C080319D32C0F393E0203194B
:10099000CB2C0318032DBC1B032D3C1BD32C203068
:1009A000FF2C2030BC05BC1EE12CBC123B08031DF3
:1009B000BC037708BC002D30C400CB233C08F700F3
:1009C000BC013B083E02031DEF2C7708BC002E3013
:1009D000C400CB233C08F7002030BC050030303089
:1009E000BC1EFF2CBC123B08031DBC037708BC00D7
:1009F0002D30C400CB233C08F700BC013030F70792
:100A00007708C400CB234308C7004208C60041084A
:100A1000C5004008C400CB01CA01C9010A30C800A2
:100A2000F3237A08C3007908C2007808C100770868
:080A3000C000BE0B9D2C003438
:10100000840183131F30830583161F149F141F153B
:101010009F1107309C008A11831290288A15013095
:10102000C5000230C6008A11CD208A1583161F1014
:101030009F101F159F111F1383121F179F178316D1
:101040009F1783121F140030F8001F08C739780457
:101050009F001430B5008A11DF208A1500308316F6
:1010600088000030F80083121F08C73978049F00F9
:101070001430B5008A11DF208A151F151F193E286C
:101080001E08FA0083161E088312B4001E08B5005D
:101090008A11ED208A157A08A3007908A200780841
:1010A000A1007708A0002308C7002208C600210875
:1010B000C5002008C400CB01CA014030C9008230FD
:1010C000C8008A110A218A157708B4007808B5008B
:1010D0007908B6007A08B700BB003608BA003508B0
:1010E000B9003408B800BF018030BE001930BD001F
:1010F0008830BC008A117F218A157A08AB007908F4
:10110000AA007808A9007708A8006430B5008A1101
:10111000DF208A15B701B6013030B5008230B40047
:101120002B08BB002A08BA002908B9002808B80013
:101130008A11492A8A15031CFE2983168801013069
:10114000831288001430B5008A11DF208A15003020
:10115000F8001F08C73978049F001430B5008A11C1
:10116000DF208A151F151F19B3281E08FA008316E1
:101170001E088312B4001E08B5008A11ED208A15DE
:101180007A08A3007908A2007808A1007708A000D7
:101190002308C7002208C6002108C5002008C40093
:1011A000CB01CA014030C9008230C8008A110A212F
:1011B0008A157708B4007808B5007908B6007A086F
:1011C000B700BB003608BA003508B9003408B800CB
:1011D000BF018030BE001930BD008830BC008A11CC
:1011E0007F218A157A08AB007908AA007808A9003F
:1011F0007708A8001430B5008A11DF208A1508305E
:10120000F8001F08C73978049F000430B400FA3092
:10121000B5008A11DF208A15B40B07291F151F1985
:101220000F291E08FA0083161E088312B4001E0838
:10123000B5008A11ED208A157A08A7007908A60062
:101240007808A5007708A40083142708B7002608AB
:10125000B6002508B5002408B400BB018030BA00F0
:101260007F30B9008730B8008A118A228A1566302B
:10127000C700C6002E30C5008230C4007A08CB00FB
:101280007908CA007808C9007708C8008A110A21BD
:101290008A157708B4007808B5007908B6007A088E
:1012A000B700BB003608BA003508B9003408B800EA
:1012B000BF01BE015F30BD008630BC008A117F21B6
:1012C0008A157A08AF007908AE007808AD00770873
:1012D000AC006430B5008A11DF208A152B08C700E6
:1012E0002A08C6002908C5002808C4002F08CB001A
:1012F0002E08CA002D08C9002C08C8008A110A212E
:101300008A157A08B3007908B2007808B100770826
:10131000B0000130C500C6008A11CD208A15B40185
:1013200034088A110C208A15B40AF700C4008A1107
:10133000CB238A1507303402031D90290130840025
:101340002B08BA002A08B9002908B8002808B700F5
:101350000130BB008A1135248A150C30B5003508E0
:101360008A110C208A15B50AF700C4008A11CB2314
:101370008A1510303502031DAF29013084002F0873
:10138000BA002E08B9002D08B8002C08B7000130AB
:10139000BB008A1135248A151530B60036088A112B
:1013A0000C208A15B60AF700C4008A11CB238A15CF
:1013B00022303602031DCE29013084003308BA00E2
:1013C0003208B9003108B8003008B700BB018A11F3
:1013D00035248A157730C4008A11CB238A15203032
:1013E000C4008A11CB238A150430B400FA30B5004A
:1013F0008A11DF208A15B40BF6295D2B831688012C
:10140000831288011430B5008A11DF208A1500305C
:10141000F8001F08C73978049F001430B5008A11FE
:10142000DF208A151F151F19132A1E08FA008316BC
:101430001E088312B4001E08B5008A11ED208A151B
:101440007A08A3007908A2007808A1007708A00014
:101450002308C7002208C6002108C5002008C400D0
:10146000CB01CA014030C9008230C8008A110A216C
:101470008A157708B4007808B5007908B6007A08AC
:10148000B700BB003608BA003508B9003408B80008
:10149000BF018030BE001930BD008830BC008A1109
:1014A0007F218A157A08AB007908AA007808A9007C
:1014B0007708A8006430B5008A11DF208A1508304B
:1014C000F8001F08C73978049F000430B400FA30D0
:1014D000B5008A11DF208A15B40B672A1F151F1962
:1014E0006F2A1E08FA0083161E088312B4001E0815
:1014F000B5008A11ED208A157A08A7007908A600A0
:101500007808A5007708A40083142708B7002608E8
:10151000B6002508B5002408B400BB018030BA002D
:101520007F30B9008730B8008A118A228A15663068
:10153000C700C6002E30C5008230C4007A08CB0038
:101540007908CA007808C9007708C8008A110A21FA
:101550008A157708B4007808B5007908B6007A08CB
:10156000B700BB003608BA003508B9003408B80027
:10157000BF01BE015F30BD008630BC008A117F21F3
:101580008A157A08AF007908AE007808AD007708B0
:10159000AC006430B5008A11DF208A152B08C70023
:1015A0002A08C6002908C5002808C4002F08CB0057
:1015B0002E08CA002D08C9002C08C8008A110A216B
:1015C0008A157A08B3007908B2007808B100770864
:1015D000B0000130C500C6008A11CD208A15B401C3
:1015E00034088A110C208A15B40AF700C4008A1145
:1015F000CB238A1507303402031DF02A0130840002
:101600002B08BA002A08B9002908B8002808B70032
:101610000130BB008A1135248A150C30B50035081D
:101620008A110C208A15B50AF700C4008A11CB2351
:101630008A1510303502031D0F2B013084002F084E
:10164000BA002E08B9002D08B8002C08B7000130E8
:10165000BB008A1135248A151530B60036088A1168
:101660000C208A15B60AF700C4008A11CB238A150C
:1016700022303602031D2E2B013084003308BA00BD
:101680003208B9003108B8003008B700BB018A1130
:1016900035248A157730C4008A11CB238A1520306F
:1016A000C4008A11CB238A150430B400FA30B50087
:1016B0008A11DF208A15B40B562B8316312863005C
:02400E003B3F36
:00000001FF
;PIC16F877A
